:020000040800F2
:100000000050002011030008AF020008B1020008F0
:10001000B3020008B5020008B702000800000000A3
:10002000000000000000000000000000B90200080D
:10003000BB02000800000000BD020008BF0200086B
:100040005903000859030008590300085903000820
:100050005903000859030008590300085903000810
:100060005903000859030008590300085903000800
:1000700059030008590300085903000859030008F0
:1000800059030008590300085903000859030008E0
:1000900059030008590300085903000859030008D0
:1000A00059030008590300085903000859030008C0
:1000B00059030008590300085903000859030008B0
:1000C00059030008590300085903000859030008A0
:1000D0005903000859030008590300085903000890
:1000E00059030008590300085903000800000000E4
:1000F0000000000000000000000000000000000000
:0C01000000000000000000005FF808F1A3
:10010C0070B5860747D0541E002A3ED00346CAB2AB
:10011C0001E0013C39D303F8012B9D07F9D1032CE5
:10012C002CD9CDB205EB05250F2C1A4605EB054550
:10013C0034D9A4F1100C2CF00F0603F1100EB644B8
:10014C004FEA1C1CC2E90055C2E902551032724537
:10015C00F8D10CF1010214F00C0F03EB021204F0B5
:10016C000F0C13D0ACF1040323F00303043313443A
:10017C0042F8045B9342FBD10CF003042CB1C9B2DE
:10018C001C4403F8011BA342FBD170BD644613460B
:10019C00002CF4D1F9E703461446C0E7A446E1E786
:1001AC0070B50F4B0F4DAB42A3EB050607D00024E7
:1001BC00B61055F8043B01349847A642F9D800F024
:1001CC0017F8094D094B5E1BAB424FEAA60606D049
:1001DC00002455F8043B01349847A642F9D870BD69
:1001EC00580B0008580B0008580B0008580B000857
:1001FC00704710B590B01422002101A8FFF780FFC2
:10020C002022002107A8FFF77BFF102301220224E4
:10021C00CDE90A234FF4601306A806940D940F93AE
:10022C0000F024FA00B1FEE70F23CDE901344FF4BE
:10023C00806303900590214601A8049300F0D8FB3D
:10024C0000B1FEE710B010BD07B500F0A5F8FFF740
:10025C00D0FF104B10499A69104842F010029A6175
:10026C009B690E4C03F010030193019B0123C1E920
:10027C0001330323CB604FF400530B6000F018F9EB
:10028C0020464FF4005100F0E7F94FF4FA7000F0FB
:10029C00A7F8F5E7001002400C0000200010014008
:1002AC0070477047FEE7FEE7FEE7FEE770477047D2
:1002BC00704700F083B800000F4B1A6842F001023F
:1002CC001A6059680D4A0A405A601A6822F0847202
:1002DC0022F480321A601A6822F480221A605A685A
:1002EC0022F4FE025A604FF41F029A604FF0006233
:1002FC00034B9A60704700BF001002400000FFF8EB
:10030C0000ED00E0002103E00B4B5B58435004313F
:10031C000A480B4B42189A42F6D30A4A02E00023D1
:10032C0042F8043B084B9A42F9D3FFF7C5FFFFF79D
:10033C0037FFFFF789FF7047580B000800000020BB
:10034C000C0000200C00002020000020FEE7000024
:10035C0038B50E4B05461A784FF47A73B3FBF2F3AB
:10036C000B4A1068B0FBF3F000F08EF8044658B955
:10037C000F2D09D8024629464FF0FF3000F054F8F3
:10038C002046044B1D6038BD0120FCE70400002012
:10039C000000002008000020074A08B5136803205D
:1003AC0043F01003136000F02DF80F20FFF7D0FF7F
:1003BC00FFF776FF002008BD00200240034A044BE3
:1003CC0011681B780B441360704700BF1C000020A1
:1003DC0004000020014B1868704700BF1C0000206F
:1003EC0038B50446FFF7F6FF0546631C1EBF044BE9
:1003FC001B78E418FFF7EEFF431BA342FAD338BD7A
:10040C000400002007490302CA6803F4E06322F4E5
:10041C00E0621204120C134343F0BF6343F4003345
:10042C00CB60704700ED00E0154B30B5DC68C4F3D1
:10043C000224C4F10703251D042B28BF0423062D19
:10044C004FF0FF3594BF0024033C05FA03F321EA77
:10045C000303A54022EA0502A340002843EA020355
:10046C00ACBF00F16040074A4FEA0313DBB2ABBFED
:10047C0000F5614000F00F0080F80033135430BDDC
:10048C0000ED00E014ED00E00138B0F1807F0BD2FC
:10049C004FF0E023F021054A586182F82310002028
:1004AC00072298611A6170470120704700ED00E047
:1004BC002DE9F74F00244FF00F0E2646DFF884C1CC
:1004CC00614B00F104080A6832FA06F502D103B058
:1004DC00BDE8F08F012505FA06F702EA070537EAB1
:1004EC00020276D14A68032A07D8013A022A00F29E
:1004FC008380DFE802F091969C00122A00F0948031
:10050C0069D8112A00F08A80FF2D94BF8146C1461C
:10051C004FEA8602D9F8007088BF203A0EFA02FA28
:10052C0027EA0A0704FA02F21743C9F80070D1F857
:10053C00049019F0805F4CD0DCF8182026F00307EB
:10054C0042F00102CCF81820DCF8182007F18047A3
:10055C0002F00102019207F5803706F0030A019AB6
:10056C004FEA8A0ABA680EFA0AFB22EA0B0B374AE0
:10057C00904260D002F5806290425ED002F58062BB
:10058C0090425CD002F58062904214BF0422032298
:10059C0002FA0AF242EA0B02BA609A6819F4801F56
:1005AC0014BF2A43AA439A60DA6819F4001F14BFD7
:1005BC002A43AA43DA605A6819F4003F14BF2A434D
:1005CC00AA435A601A6819F4803F14BF2A43AA43FD
:1005DC001A60013677E7DFF878904A450CD014D8CA
:1005EC00A9F580194A4507D009F570294A4503D069
:1005FC00A9F580194A4587D18A68D2B1012A4FF0F2
:10060C0008040CBF076147617EE7DFF848904A4554
:10061C00F2D009F58039EDE7CC6875E7CC68043485
:10062C0072E7CC6808346FE7CC680C346CE70024B4
:10063C006AE7042468E70022AAE70122A8E702225D
:10064C00A6E700BF00100240000401400008014072
:10065C000000221000003110C36801EA030221EAF5
:10066C00030141EA02410161704700002DE9F341A9
:10067C00054638B30368DB0710D42B689F075ED49C
:10068C002B68190700F195802B685A0700F1C1807F
:10069C00EB69002B40F02C81002029E0904C636822
:1006AC0003F00C03042B07D0636803F00C03082B36
:1006BC000AD16368DE0307D523689C03DDD56B681C
:1006CC00002BDAD1012013E06B68B3F5803F12D117
:1006DC00236843F480332360FFF77CFE06462368CF
:1006EC009803CAD4FFF776FE801B6428F7D9032041
:1006FC0002B0BDE8F0819BB9236823F480332360FA
:10070C00236823F480232360FFF764FE06462368E6
:10071C009903B2D5FFF75EFE801B6428F7D9E6E794
:10072C00B3F5A02F236803D143F480232360CFE7D4
:10073C0023F480332360236823F48023CBE7684CB5
:10074C00636813F00C0F07D0636803F00C03082BDD
:10075C0010D16368DA030DD423689B0702D52B698B
:10076C00012BAFD123686A6923F0F80343EAC20373
:10077C00236085E72A695B4B6AB101221A60FFF797
:10078C0029FE064623689F07ECD4FFF723FE801B47
:10079C000228F7D9ABE71A60FFF71CFE0646236860
:1007AC0098077FF56DAFFFF715FE801B0228F6D971
:1007BC009DE7AA694A4E4B4BE2B10122C3F8802453
:1007CC00FFF708FE0446736A9B070DD54FF4FA52E7
:1007DC00454B1B68B3FBF2F3019300BF019B5A1E00
:1007EC000192002BF9D14FE7FFF7F4FD001B022813
:1007FC00E9D97CE7C3F88024FFF7ECFD0446736A63
:10080C009F077FF541AFFFF7E5FD001B0228F6D9E6
:10081C006DE7334CE369D80024D40127E36943F036
:10082C008053E361E36903F080530093009B2F4EE8
:10083C003368D90518D5EB68012B26D1236A43F010
:10084C0001032362FFF7C6FD41F288380646236A8E
:10085C009B073FD5002F3FF41BAFE36923F0805378
:10086C00E36115E70027E2E7336843F480733360F4
:10087C00FFF7B0FD80463368DA05DCD4FFF7AAFD3C
:10088C00A0EB08006428F6D931E7ABB9236A41F232
:10089C00883823F001032362236A23F004032362C4
:1008AC00FFF798FD0646236A9807D3D5FFF792FD0C
:1008BC00801B4045F7D91AE7052B236A03D143F077
:1008CC0004032362BAE723F001032362236A23F0B3
:1008DC000403B6E7FFF77EFD801B4045B7D906E75A
:1008EC000010024000004242000000200070004056
:1008FC002A4C626802F00C02082A3ED00022022B1D
:10090C00274B1A662CD1FFF765FD06462368990123
:10091C0020D42B6AB3F5803F05D16268A96822F414
:10092C0000320A436260696A62680B4322F47412F3
:10093C001343012263601A4B1A66FFF74BFD054601
:10094C0023689A013FF5A8AEFFF744FD401B02282F
:10095C00F6D9CCE6FFF73EFD801B0228D6D9C6E6B9
:10096C00FFF738FD054623689B017FF595AEFFF731
:10097C0031FD401B0228F6D9B9E6012B3FF4A2AE9B
:10098C0060682B6A00F480329A427FF49BAE6B6AEB
:10099C0000F47010C01A18BF0120A9E60010024024
:1009AC00000042420D4A536803F00C01082912D191
:1009BC000B48C3F38341DB03405C09D55368094AF8
:1009CC00C3F340435043084AD35CB0FBF3F0704789
:1009DC00064B584370470348704700BF0010024055
:1009EC00460B000800127A00440B000800093D0079
:1009FC002DE9F0410D46044610B90120BDE8F08107
:100A0C00444A136803F007038B4228D321688E07EE
:100A1C0030D4CA0743D43F4A136803F00703AB42F0
:100A2C0065D822683C4D12F0040F6CD1130706D523
:100A3C006B68226923F4605343EAC2036B60FFF7CF
:100A4C00B1FF6B68354AC3F30313D35CD840344B06
:100A5C001860344B1868FFF77BFC0020CEE7136856
:100A6C0023F007030B431360136803F007038B4257
:100A7C00C3D1CBE7284B11F0040F1EBF5A6842F4C8
:100A8C00E0625A60080742BF5A6842F460525A60EA
:100A9C005A68A06822F0F00202435A60B9E7626813
:100AAC001D4E012A33681AD113F4003FA5D0736888
:100ABC0041F2883823F0030313437360FFF78AFC79
:100ACC0007467368626803F00C03B3EB820FA2D085
:100ADC00FFF780FCC01B4045F3D903208EE7022AA8
:100AEC0002D113F0007FE1E713F0020FDEE7136889
:100AFC0023F007032B431360136803F00703AB4287
:100B0C007FF47BAF8DE76B68E16823F4E0630B4304
:100B1C006B608BE70020024000100240340B000891
:080B2C00000000200800002079
:100B34000000000000000000010203040607080989
:100B4400010202030405060708090A0B0C0D0E0F27
:040B5400101000007D
:0C0B580000A24A04010000001000000090
:0400000508000311DB
:00000001FF
