:020000040800F2
:1000000000100020BD210008611E0008631E0008CA
:1000100000000000000000000000000000000000E0
:10002000000000000000000000000000651E000845
:100030000000000000000000671E0008691E0008A4
:100040000D2200080D2200080D2200080D220008D4
:100050000D2200080D2200080D2200080D220008C4
:10006000000000000D2200080D2200080000000022
:100070000D2200080D2200080D22000800000000DB
:100080000D2200080D220008000000000D220008CB
:10009000000000000D2200080D2200080D220008BB
:1000A000000000000D220008000000000D220008E2
:1000B0000D22000800000000000000000000000009
:1000C0000448054B10B5834203D0044B002B00D0ED
:1000D000984710BD200100202001002000000000F2
:1000E00006480749091A8B10C90FC91810B54910DD
:1000F00003D0044B002B00D0984710BD20010020F6
:10010000200100200000000010B5074C2378002BD0
:1001100009D1FFF7D5FF054B002B02D0044800E0C2
:1001200000BF0123237010BD20010020000000004B
:1001300010220008054B10B5002B03D004490548D8
:1001400000E000BFFFF7CCFF10BDC046000000007C
:10015000240100201022000870B50D4B0D4D5E1BD0
:10016000B610AB4205D0002408CD01349847A64212
:10017000FAD802F04DF8084B084D5E1BB610AB42A2
:1001800005D0002408CD01349847A642FAD870BDA6
:10019000142300081423000818230008142300085F
:1001A000F0B50500830749D0541E002A45D003004E
:1001B0000326CAB202E00135013C3ED301332A7066
:1001C0003342F8D1032C30D9FF220A401502AD1872
:1001D0002A04AD180F2C34D92700103F3F093E01E7
:1001E000B4461E001A0010366644156055609560CE
:1001F000D56010329642F8D101373F01DB190F2745
:100200000C22274022403C00002A0ED03E1FB60898
:10021000B400A4461A001C1D644420C2A242FCD1B2
:1002200003240136B6009B193C40002C05D0C9B20E
:100230001C19197001339C42FBD1F0BD030014005E
:10024000C0E72700E2E7C0460020704710B5034A28
:100250000349044800F000FB10BDC046C000002068
:10026000C1050008D000002041680B4B10B5040008
:10027000994201D000F0A4F9A168084B994202D03C
:10028000200000F09DF9E168054B994202D0200062
:1002900000F096F910BDC04640010020A8010020E2
:1002A0001002002000207047F8B5CE464746344C77
:1002B000344B354A2000002580B51A6004230822FB
:1002C00000215C3025606560A5606566256165611B
:1002D000A561E360FFF764FF2C4B20009946636241
:1002E0002B4B2C4F9846A362CC23E5502A4B2B4E28
:1002F0006367802308220021C430E550E76226634B
:10030000A566E5662567A567E5672462FFF748FFF0
:10031000220088236832E2504A460433E2504246C3
:1003200020000433E2500433E7500433E6503833FE
:10033000E5500433E5500433E550194A5C33E55089
:10034000583BE2500433E5502D300433E550082289
:1003500004330021FF30E550FFF722FF2200F02395
:10036000D032E2504A460433E25042460433E2506F
:100370000433E7500433E650C0BCB946B046F8BD7C
:10038000400100203C0100204D020008C90800087F
:10039000F508000835090008090001006509000892
:1003A00012000200F8B5244B07001B68002B3BD05D
:1003B000224E7368B468013B03D51BE06834013BEF
:1003C00018D30C22A55E002DF8D120001C4B08226A
:1003D0000021E36065662560A56065602561656153
:1003E000A5615C30FFF7DCFE6563A563A564E56489
:1003F0002000F8BD3568002D01D02E00D9E7D621A8
:100400003800490000F044F9041E10D00423D02223
:100410000560250043600C300021A0605200FFF70A
:10042000BFFE34602E00C4E7FFF73EFFC0E70C2399
:1004300030603B60DCE7C0463C010020C00000208B
:100440000100FFFF036A10B5002B00D010BD044B64
:100450000362044B1B68002BF8D1FFF725FFF5E77B
:10046000690200083C0100207047C0467047C04642
:1004700010B50020024A034900F0EEF910BDC04655
:10048000C00000204902000810B50020024A0349BC
:1004900000F0E2F910BDC046C0000020A50200082F
:1004A000F0B5C64600B50C228B5E07000C001A079B
:1004B0003CD44A68002A5CDDE66A002E32D0002275
:1004C0003D68216A3A60DA0457D4002201233800DB
:1004D000B0470200431C65D00C21635EE66A216AC6
:1004E0005B0706D56368D21A636B002B01D0236CBF
:1004F000D21A00233800B047431C40D00023636069
:1005000023692360A389DB044AD4616B3D60002921
:1005100008D023004433994202D0380000F040F95B
:1005200000236363002080BCB846F0BD0E69002E36
:10053000F8D00D680022AD1B0E609B0700D14A6900
:10054000A260002D04DCEDE736182D1A002DE9DD40
:10055000A36A3200984638002B00216AC047002861
:10056000F2DC4022A38913431BB20120A381404245
:10057000D9E70A6C002A9FDCD4E7626DB0E73968DE
:100580000C22A35E1D2916D80C4ACA40D20712D5E8
:100590000022626022692260DB04B6D50029B4D152
:1005A0006065B2E73B68002B96D01D2B01D0162B5F
:1005B000D7D13D60B6E740221343D6E70100402083
:1005C0000B6970B505000C00002B08D0002802D084
:1005D000036A002B0AD00C22A35E002B01D100205D
:1005E00070BD21002800FFF75BFFF9E7FFF72AFF46
:1005F000F1E7C04670B5041E18D00F4B1D680369A3
:10060000002B08D0002D02D02B6A002B0AD00C2220
:10061000A35E002B01D1002070BD21002800FFF750
:100620003FFFF9E72800FFF70DFFF0E7034A044911
:10063000044800F011F9EFE7CC000020C0000020D2
:10064000C1050008D000002070B5104E05003368C9
:100650000C00002B15D02100280000F023F9431CCA
:100660000CD00323C41C9C43A04205D0211A2800AF
:1006700000F018F9013001D0200070BD012464425F
:10068000FAE7002100F00EF93060E4E7780200207C
:10069000F8B50323CE464746CD1C9D4308350600DA
:1006A00080B50C2D1ED20C25A9421DD8300000F0BB
:1006B000F5F83A4F7A68002A1AD0140004E063680B
:1006C0002200002B14D01C0023685B1BF7D40B2BDB
:1006D00027D96119256094425BD051600B60636833
:1006E0004B600DE0002DDFDA0C230020336014E0B6
:1006F00029003000FFF7A8FF0400431C19D0056053
:10070000300000F0CDF8200007220B30231D90436D
:10071000C21A984201D01B1AA350C0BCB946B046B9
:10072000F8BD6368944202D05360E9E743467B60BA
:10073000E6E77B689846002B24D0444663689846D9
:10074000002BFAD12368002199463000A14400F023
:10075000A9F8814516D123683000ED1A2900FFF76A
:1007600073FF01300ED023687A685B1923605368E9
:10077000002B02D1DAE71A005B689C42FBD1002310
:100780005360BDE70C233000336000F089F800208F
:10079000C3E779600B6063684B60B1E778020020C3
:1007A00070B50500002915D00C1F2368002B23DB32
:1007B000280000F073F8274A1368002B05D0A342E5
:1007C0000BD92168601883422CD028006360146024
:1007D00000F066F870BDA34210D81A005B68002BC9
:1007E000F9D1106811188C4218D02CD36360546072
:1007F000280000F055F8EDE7E418D9E71168501823
:10080000A04214D01FD8216860188342EED1186826
:100810005B684118216063605460E9E723681B1836
:100820001360E5E718685B6841182160CDE7206830
:100830000918501811608342DAD118685B684118B2
:1008400011605360D4E70C2328002B6000F028F8D7
:10085000C0E7C0467C020020F8B54746CE46884631
:1008600080B58146170000267D68BC68013D0DD427
:10087000A389012B07D90E22A35E013303D02100E7
:100880004846C04706436834013DF1D23F68002F17
:10089000EAD13000C0BCB946B046F8BD7047C0468A
:1008A0007047C046002370B5064C05000800236061
:1008B00001F0C8FA431C00D070BD2368002BFBD0A8
:1008C0002B60F9E78002002070B50C000E25495F0F
:1008D00000F060F8002803DB636D1B18636570BDD2
:1008E000A389024A1340A381F9E7C046FFEFFFFF47
:1008F00000207047F8B50C001F000C23C95E0500EE
:100900001600CB050AD40A4B320019402800A181F9
:100910000E23E15E3B0000F065F8F8BD0E23E15EBA
:100920000022022300F04AF80C23E15EEBE7C04608
:10093000FFEFFFFF70B50C000E25495F00F03EF899
:10094000431C07D08023A2895B0113431BB260655F
:10095000A38170BDA389024A13401BB2F8E7C046C9
:10096000FFEFFFFF10B50E23C95E00F001F810BDC8
:10097000002370B5064C05000800236001F0D9FB88
:10098000431C00D070BD2368002BFBD02B60F9E71F
:100990008002002070B50400080011001A00002336
:1009A000054D2B6001F0ADFB431C00D070BD2B68E2
:1009B000002BFBD02360F9E78002002070B5040013
:1009C000080011001A000023054D2B6001F0BCFB4C
:1009D000431C00D070BD2B68002BFBD02360F9E7CF
:1009E0008002002070B50400080011001A000023E6
:1009F000054D2B6001F078FB431C00D070BD2B68C7
:100A0000002BFBD02360F9E780020020002243087E
:100A10008B4274D303098B425FD3030A8B4244D3C6
:100A2000030B8B4228D3030C8B420DD3FF22090208
:100A300012BA030C8B4202D31212090265D0030BC7
:100A40008B4219D300E0090AC30B8B4201D3CB03BD
:100A5000C01A5241830B8B4201D38B03C01A5241FF
:100A6000430B8B4201D34B03C01A5241030B8B4201
:100A700001D30B03C01A5241C30A8B4201D3CB02EC
:100A8000C01A5241830A8B4201D38B02C01A5241D1
:100A9000430A8B4201D34B02C01A5241030A8B42D4
:100AA00001D30B02C01A5241CDD2C3098B4201D3EC
:100AB000CB01C01A524183098B4201D38B01C01A6A
:100AC000524143098B4201D34B01C01A52410309E1
:100AD0008B4201D30B01C01A5241C3088B4201D390
:100AE000CB00C01A524183088B4201D38B00C01A3D
:100AF000524143088B4201D34B00C01A5241411A64
:100B000000D20146524110467047FFE701B5002070
:100B100000F0F0F802BDC0460029F7D076E7704734
:100B200003460B437FD4002243088B4274D303094E
:100B30008B425FD3030A8B4244D3030B8B4228D3EF
:100B4000030C8B420DD3FF22090212BA030C8B4215
:100B500002D31212090265D0030B8B4219D300E0B5
:100B6000090AC30B8B4201D3CB03C01A5241830B3A
:100B70008B4201D38B03C01A5241430B8B4201D3EA
:100B80004B03C01A5241030B8B4201D30B03C01A13
:100B90005241C30A8B4201D3CB02C01A5241830A8D
:100BA0008B4201D38B02C01A5241430A8B4201D3BC
:100BB0004B02C01A5241030A8B4201D30B02C01AE6
:100BC0005241CDD2C3098B4201D3CB01C01A52414D
:100BD00083098B4201D38B01C01A524143098B42D6
:100BE00001D34B01C01A524103098B4201D30B01BF
:100BF000C01A5241C3088B4201D3CB00C01A5241E4
:100C000083088B4201D38B00C01A524143088B42A8
:100C100001D34B00C01A5241411A00D20146524141
:100C2000104670475DE0CA0F00D04942031000D360
:100C30004042534000229C4603098B422DD3030AB5
:100C40008B4212D3FC22890112BA030A8B420CD3C5
:100C5000890192118B4208D3890192118B4204D3EE
:100C600089013AD0921100E08909C3098B4201D36E
:100C7000CB01C01A524183098B4201D38B01C01AA8
:100C8000524143098B4201D34B01C01A524103091F
:100C90008B4201D30B01C01A5241C3088B4201D3CE
:100CA000CB00C01A524183088B4201D38B00C01A7B
:100CB0005241D9D243088B4201D34B00C01A524152
:100CC000411A00D20146634652415B10104601D3DF
:100CD0004042002B00D54942704763465B1000D369
:100CE000404201B5002000F005F802BD0029F8D00F
:100CF00016E770477047C046036A70B506000D00DE
:100D00008468002B3FD0A3891B0725D52369002BBE
:100D100022D0A3682978013B002911D00135A360B6
:100D2000002B04DAA2699A421FDC0A291DD023682D
:100D30005A1C22601970A3682978013B0029EDD163
:100D4000A360002B18DA220030000A3100F092FB79
:100D5000013007D00A2007E02100300000F026F81B
:100D60000028D6D00120404270BD2200300000F0A3
:100D700081FB0130CDD1F5E723680A205A1C22609F
:100D80000A221A70F0E7FFF75DFBBCE710B5034BD2
:100D900001001868FFF7B0FF10BDC046CC0000206E
:100DA000014B18687047C046CC000020314B70B52D
:100DB000050018680C00002802D0026A002A4FD0F3
:100DC0000C22A35E1A071DD52269002A24D0D90758
:100DD00008D50021A160616900204942A161002A73
:100DE00008D070BD0021980700D461690020A1607F
:100DF000002AF6D11A06F4D540221343A38101201C
:100E00004042EEE7DA062ED55A0714D422690821AB
:100E10000B43A381002ADAD1A02180208900800021
:100E200019408142D3D02100280000F0E5F80C22BF
:100E3000A35E2269CBE7616B00290AD0220044320D
:100E4000914204D02800FFF7ABFC0C22A35E0022E5
:100E50006263242293430022626022692260D6E703
:100E6000FFF7F0FAACE709222A6040221343A3817E
:100E7000C5E7C046CC000020F0B54746CE4680B559
:100E80001D00514B04001B680E001700984683B0EC
:100E9000002B03D01B6A002B00D17FE0022F05D06E
:100EA000012F00D97EE0002D00DA7BE021004046D2
:100EB000FFF786FB616B002908D023004433994279
:100EC00002D04046FFF76CFC002363630023A3615C
:100ED00063600C22A35E1A0641D43C4A1340A381EE
:100EE000022F47D001AB6A462100404600F0E6F8E9
:100EF000A3890343A381002D1CD0002E1BD04346A1
:100F00001B6A002B24D00C22A35E012F02D10122E8
:100F10001343A381082211002660266165611940F0
:100F20001A4219D0DB0736D500236D420020A3609A
:100F3000A5612BE0009D280000F04AF8061E34D081
:100F40008022A3891343A38143461B6A002BDAD175
:100F50004046FFF777FAD6E70020A16016E040464A
:100F60002169FFF71DFC0C22A35E184A1340A381E0
:100F7000022FB7D1002002221343A3810023A360D4
:100F800023004733236023610123636103B0C0BCA6
:100F9000B946B046F0BD0020A560F7E74046FFF730
:100FA00051FA7BE701204042F0E7009B9946AB42B3
:100FB00005D0180000F00CF84D46061EC0D10120E7
:100FC0000C22A35E4042D6E7CC0000205CF3FFFF7A
:100FD00010B5034B01001868FFF75AFB10BDC0465F
:100FE000CC00002010B5034B01001868FFF7D8FBB8
:100FF00010BDC046CC000020F0B50C23CD5E06002D
:101000000C0097B0AA0707D523004733236023615C
:101010000123636117B0F0BD0E23C95E00292BDBED
:101020006A4600F071FE002824DB8027FF003900AB
:101030003000019DFFF72CFB002833D08022A389CC
:1010400020601343A381F0231B021D4080232061F5
:1010500067619B019D42DDD130000E23E15E00F00F
:1010600073F80028D6D00322A389934301221343A7
:10107000A381CFE70C23E55E0F4B2D06ED171D4036
:101080008023DB009C46654429003000FFF700FB0D
:10109000002807D08022A38920601343A381206108
:1010A0006561B7E70C22A35E9A05B3D4032293438C
:1010B00002221343A381A7E740FCFFFF70B50C0099
:1010C0001E000E23C95E150096B0002914DB6A4687
:1010D00000F01AFE00280FDBF02301991B021940D3
:1010E000084B9C4661444B4259418023DB00002061
:1010F00031602B6016B070BDA38900211B06F4D5AA
:101100004023F4E700E0FFFF0EB400B582B003AB6C
:1011100004CB8168019300F063F802B008BC03B00F
:101120001847C0460FB400B5064983B004AB086841
:1011300004CB8168019300F053F803B008BC04B0FD
:101140001847C046CC000020002370B5064C0500AF
:101150000800236000F0E2FF431C00D070BD23684C
:10116000002BFBD02B60F9E780020020936810B5BC
:10117000013B9360002B04DA9469A34207DB0A2940
:1011800005D01368581C10600800197010BD00F0DD
:1011900071F9FBE7F8B506000F00002B0DD0140025
:1011A000D51802E00134AC4207D03A003000217873
:1011B000FFF7DCFF431CF5D1F8BD0020FCE7C0467B
:1011C00010B5140092680023002A05D0220000F018
:1011D000ABF900220300A26000221800626010BD7B
:1011E000F0B54E464546DE465746E0B58146884650
:1011F00014001E009FB0002803D0036A002B00D10A
:101200001FE143469B891B0700D48FE043461B69BF
:10121000002B00D18AE0002306AD6B6120336B7692
:101220001033AB765346A346874F059603935B4630
:101230001B78002B00D19BE05C4603E0637801340F
:10124000002B7DD0252BF9D15B46E31A9A465C45ED
:101250007BD12378002B00D18AE0012300225B425E
:101260000692079300220023089209930023433239
:10127000AB54AB6501339B46013406E05A46C01BB4
:1012800082401C0029680A432A6005223800217820
:1012900000F04EFD631C1E000028EFD12A68D10625
:1012A00002D5432120306854110702D543212B2059
:1012B000685421782A2967D1059B191D1B6805915F
:1012C000002B00DA98E0EB6061782E2900D172E003
:1012D0005E4C0322200000F02BFD002806D04023A6
:1012E000001B83402A68013613432B603178731C3E
:1012F000062257489B46297600F01AFD002800D1A7
:1013000080E0544B002B67D005AA0092290042468A
:101310004846514B00E000BF0390039B013327D0A8
:10132000039A6B69944663446B6180E74146484683
:10133000FFF73CFD002800D16DE7012040421CE092
:101340005B46E31A9A465C4512D03B0000264746AE
:10135000A0464C46994602E00136B24543D95B4669
:101360003A002000995DFFF701FF0130F4D1B84643
:1013700043469B895B06E0D468691FB0F0BCBB465E
:10138000B246A946A046F0BD08003038260009281C
:101390009BD8EA68140000E00133A2001219197802
:1013A00052001418080030380928F5D91E00EC60E6
:1013B0002E2900D08CE771782A292DD1059BB01CED
:1013C0001A1D1B6805926B60002B02DA01235B4239
:1013D0006B60B17806007BE70722059B07339343D8
:1013E000083305939CE74B466A69A146524444463C
:1013F0006A61B8461F002CE75B42EB6002231A4388
:101400002A6061E705AA0092290042464846124B2D
:1014100000F04AFB039080E70800002330380136D3
:101420006B60092800D953E71A0093009B18717864
:101430005B001A180800303801360928F5D96A60AF
:1014400046E7FEF7FFFFDCE6D8220008E0220008AE
:10145000E4220008000000009511000810B5040007
:101460001300034A10680A002100FFF7B9FE10BDFF
:10147000CC000020F8B505000E001400002802D0B2
:10148000036A002B41D0A369A360A3891B071BD566
:101490002369002B18D0FF22F7B261691640226839
:1014A000D31A99421FDD0133A1680139A160511C93
:1014B0002160177062699A421ED0A389DB0701D5AB
:1014C0000A2E19D03000F8BD21002800FFF76EFC6D
:1014D000002817D1FF222369F7B2616916402268FC
:1014E000D31A9942DFDC21002800FFF769F80028B1
:1014F00008D101232268D7E721002800FFF760F810
:101500000028DFD001267642DCE7FEF79BFFBAE732
:10151000030010B50A00034908681900FFF7AAFF85
:1015200010BDC046CC000020F0B54E46DE46574602
:101530004546E0B5936883B00C0091460090002BBF
:101540005FD00C23CA5E130763D50B69002B60D0F4
:101550004B461F68930723D5A36A00269A46B34BD0
:1015600000259846216A002D16D02B00454500D94C
:10157000AE4B32000098D047002859DD4B464A4612
:101580009B6836181B1A2D1A9360002B39D0A36A5A
:10159000216A9A46002DE8D13E687D680837E2E767
:1015A000D30762D50023B84600209A4600261F00C4
:1015B000002E45D000284CD03B00B3469E4200D9B7
:1015C0009B4620682269A5686369904203D9ED189B
:1015D000AB4500DDFEE05B4500DDEEE0A56A52466E
:1015E000216A0098A847051E22DD01207F1B19D023
:1015F0004B464A469B68AA445B1B761B9360002BB4
:10160000D6D1002003B0F0BCBB46B246A946A046E6
:10161000F0BD21000098FFF7C9FB00280DD10C2375
:10162000E25E95E721000098FEF7CAFF0028DFD0B0
:101630000C22A35E40221343A38101204042E1E734
:101640000822434694465E68E044002EF8D01B68AA
:101650009A4632000A21504600F06AFB002800D169
:10166000DBE053460130C71AA6E7002380219A46E3
:1016700089008B46564655462068A368844698469E
:10168000002D5CD059460A425DD09A46AB4200D943
:1016900090E09023DB001A4232D02169431A60693E
:1016A000019343001B18D80FC3185810019B8246A2
:1016B00001335B19834201D99A461800520500D4C0
:1016C00097E001000098FEF7E3FF8046031E00D17B
:1016D000A6E0019A216900F065FBA389544A1340F2
:1016E00080221343A38143462361019B1A00424495
:1016F000944622605246A846AA46D31A6261A36065
:1017000052463100604600F097F84246A846002550
:10171000A36820689B1A5044A36020604B46424651
:101720009B6846449B1A4A46936000D169E70C23A4
:10173000E25E2068A36884469846002DA2D13E68E8
:101740007D6808379AE7226982421BD36269904616
:10175000AA4217D8802328001B069D4200D3354893
:101760004146FFF7DDF94346A26A43439046216AAA
:1017700032000098C047002800DC59E78046434605
:10178000ED1ACBE79846AB4200D9A8464246310055
:1017900000F052F84246A36820689B1A4044A360B8
:1017A0002060002BEBD121000098FEF709FF0028F4
:1017B000E5D03DE7A846AA46A2E75A46514600F0C2
:1017C0003BF85A46A3685D469B1AA36023685B44B6
:1017D00023600AE751462A0000F02EF82368210012
:1017E0005B1900982360FEF7EBFE002800D1FCE6B1
:1017F0001EE70200009800F077F88046002800D02D
:1018000071E7009D21692800FEF7CAFF8022A389A5
:101810009343743A1BB22A600CE7731C1F00CCE69A
:10182000009A0C3313600C22A35E03E700FCFF7FD9
:101830007FFBFFFFFFFFFF7FF0B588420AD98B18BF
:10184000984207D2531E002A03D0CA5CC254013BFF
:10185000FBD2F0BD05000F2A0AD8561E002AF8D088
:101860000023CC5C1A00EC5401339642F9D1F0E726
:1018700003273E000D430C0003002E402F422DD1C4
:101880001500103D2D09AC462F013F1825681D603D
:1018900065685D60A5689D60E5681034DD601D00C9
:1018A0001033BD42F2D165460F230C2401352D01C2
:1018B000491913404519144213D0043B9B080133C6
:1018C0009B008C59AC5104369E42FAD103231A4036
:1018D000AD198919561E002AC2D1BAE70500561E55
:1018E000BEE71A00B9E7C046F0B5C64607000E00CD
:1018F000140000B500292DD0002A27D000F098FA56
:101900008046844203D835004308A34210D3210007
:101910003800FEF7BDFE051E0AD0220044450BD854
:101920003100280000F03EFA31003800FEF738FFA1
:10193000280080BCB846F0BD31004246280000F0C7
:1019400031FA31003800FEF72BFFF1E7FEF728FFF0
:101950000025EDE71100FEF79BFE0500E8E7C04615
:10196000F8B557464E464546DE46E0B51F000A9B91
:10197000924698460A698B6806000C009A4200DA83
:101980001A0053461A604323E35C002B02D05146F1
:1019900001320A602268910661D5534652460620FC
:1019A0001B680233136022681100104208D1002026
:1019B000814619308346E168A344994247DC11000F
:1019C0004323E35C5A1E934189060AD53020E1186F
:1019D0004331087045215A1C615CA218433202331E
:1019E00011702200390030004332C04701301DD051
:1019F000534606251B68E1689C462368A268206957
:101A00002B40042B31D0824239DD00239946121A33
:101A1000914400251A3402E001354D452FDA0123A7
:101A2000220039003000C0470130F5D1012040428A
:101A3000F0BCBB46B246A946A046F8BD01239C4671
:101A40005346E5681B68E144ED1A4D4524DD01234A
:101A50005A4639003000C0470130EFD1E6E7062191
:101A600011420ED05A1E9341BBE76346C91ACB43BD
:101A7000DB170B4099468242C9DC0029C9DC0020F3
:101A8000D6E7002053468146193083461B68E1683B
:101A9000A3449942DBDC92E743232168E35C5A1EAE
:101AA0009341890692D49CE7F0B54E46994643236C
:101AB0009C4657464546DE468C446346E0B587B0B3
:101AC00002930C00097E90460700109A002914D05A
:101AD0000B00583BDBB2202B48D888489B00C358EA
:101AE0009F46136821681D1D606915601B680E06FE
:101AF00002D4490600D5DCE018600023029D236172
:101B00004B46210000933800434605AAFFF728FF03
:101B100001301ED02A00414638002369C8470130F1
:101B200017D02368E068059E9B071BD5B04219DDDE
:101B300019239A460025A24404E0E0680135831B7E
:101B4000AB420FDD0123524641463800C847013001
:101B5000F3D10120404207B0F0BCBB46B246A946D3
:101B6000A046F0BDB042F6DA3000F4E7250042238B
:101B700001204235E154432300222061E254BFE7B3
:101B800013682168181D10600D0602D44D0600D59B
:101B900094E01A6816006368002A00DA92E0584A56
:101BA00093460A2203924BE01368206840CB050657
:101BB00001D440067FD41360514B9B466F2900D15E
:101BC00091E00A23039337E013682500191D116083
:101BD0001A68422301204235E254CCE71368191DEC
:101BE00011601D6800212800626800F0A1F800283B
:101BF00000D181E0401B6060BDE7202321680B43DA
:101C000023604521782060543E498B46116840C9C5
:101C1000180603D4580601D53604360C1160DA07CD
:101C200002D5202213432360002E03D120222368F3
:101C3000934323601023039343230022E2546368F9
:101C4000A360002B18DB042122688A432260002E47
:101C500012D1029D002B49D1039B082B1ED0029B61
:101C60005B1B23614CE745235821E1542449236839
:101C70008B46CBE72368C4E7039B9A46029D30005E
:101C80005146FEF749FF5B465B5C013D2B7033001C
:101C900006005345F3D2039B082BE0D12368DB07F2
:101CA000DDD5626823699A42D9DC3023013D2B706F
:101CB000D5E7188021E73604360C7CE700269E5FC6
:101CC000320068E743222D20A054A360002B02DBE2
:101CD0000423994321600A239A46094B76429B4686
:101CE0000A230393CAE708230393A5E75B4625006D
:101CF0001B7842352B70AFE760683CE7282200086C
:101D0000EC22000800230008002370B5074D0400F2
:101D1000080011002B6000F01FFA431C00D070BDBA
:101D20002B68002BFBD02360F9E7C046800200201F
:101D300070B5CCB283070DD0531E002A0FD00325F7
:101D400004E00130284206D0013B08D30278A242C9
:101D5000F7D170BD1300032B03D8002B14D1002042
:101D6000F7E7FF220A401502AD182A040B4EAD1802
:101D700003E0043B0430032BEFD9026808496A40B2
:101D8000511891433142F4D0C31802E00130984217
:101D9000E5D00278A242F9D1DBE7C046808080809E
:101DA000FFFEFEFEF0B505000F2A31D903273E00E5
:101DB0000D430C0003002E402F4234D11500103D7E
:101DC0002D09AC462F013F1865685D60A5689D60D0
:101DD000E568DD60256810341D601D001033BD42CC
:101DE000F2D165460F230C2401352D01491913400A
:101DF000451914421AD0043B9B0801339B008C59AF
:101E0000AC5104369E42FAD10323AD1989191A4008
:101E1000561E002A06D00023CC5C1A00EC54013375
:101E20009642F9D1F0BD0500561EF4E71A00EFE71F
:101E30000B1F1B68181F002B00DB70470B58C018C6
:101E4000FBE7C046044A03001068002802D0C3180C
:101E5000136070470148FAE78402002088020020DE
:101E60007047FEE77047704770470000802337B522
:101E7000214C5B002268134323608023DB0022682F
:101E80001A42FCD0A3681D4A13400722A360A3682E
:101E90009343A3603823A2681A42FCD10125A368AA
:101EA000174A18481340A36000F034F8154800F0B2
:101EB00057F8636B03222B436363636BA024E12019
:101EC0002B400193E405019B2368400293432B437D
:101ED000236000F04BF80C4B0C481968FFF722F90F
:101EE00063690B486B406361FEF750FFFA204000C6
:101EF00000F020F8F4E7C04600100240FFF0FFFFBA
:101F0000FF8FFFFF00127A001C010020AC220008A6
:101F1000D0220008FA2110B58900FEF777FD0022D3
:101F2000034B013858609A6005321A6010BDC046F4
:101F300010E000E0094A82B013680193019B431C42
:101F4000591E8B41C01880235B02002801D102B0CA
:101F5000704711681942FCD00138F6E710E000E044
:101F6000014B18607047C0461C0100207FB58022DD
:101F700001001920464CD201236C890013432364CD
:101F8000236C13400393039B424B1B685843FEF79B
:101F90003DFD64210600FEF7BFFD080132306421DB
:101FA000FEF734FD642105003000FEF72FFD00012F
:101FB000394B2D18ADB29D60DA6838490A40DA60B5
:101FC0001A6937490A401A61DA6836490A40DA6004
:101FD0005A6935490A400C215A61DA680A43DA60C5
:101FE0008022D96892010A43DA60412252421A6083
:101FF0000123626B30211A436263626B1A400292C2
:10200000029A626B1A436263626B13400193019BF5
:10201000A0232022DB051868244C884302431A6061
:102020009A688A430A439A60DA688A431100102248
:102030000A43DA60196A1E4A1140802252000A439C
:10204000C0211A6280221868884302431A609A6885
:1020500020688A430A439A60DA6880688A431100DC
:1020600040220A43DA60196A124A11408022520162
:102070000A431A62002302221900FEF7FDFE002324
:102080002068022219004068FEF7F6FE7FBDC046B8
:10209000001002401C01002000380140FFEFFFFF4C
:1020A000FFDFFFFFFFF9FFFFFFFCFFFFCC00002079
:1020B000FFF0FFFFFF0FFFFF054BC2B25A60402247
:1020C00019681142FCD0412252421A607047C04642
:1020D000003801402022034B19681142FCD0586897
:1020E000C0B270470038014070B50E0014000025E2
:1020F000A54201DB200070BD705DFFF7DDFF0135FB
:10210000F6E770B50E0014000025A54201DB2000A3
:1021100070BDFFF7DFFF70550135F6E7012310B5FD
:10212000022804D9FEF73CFE0923036000231800AF
:1021300010BD002310B5022804D9FEF731FE092393
:1021400003600A3B180010BD10B5FEF729FE0923F5
:1021500003600120404210BD10B5022804D880233E
:102160009B014B60002010BDFEF71AFE092303609F
:10217000F8E700000C490D4A4B6812681B0C1B0461
:10218000134380229201134310B54B600023084C87
:1021900008499A00105901335050302BF9D1802250
:1021A000054B92059A6010BD00100240040FFF1FFE
:1021B000000000080000002000ED00E00D4885460A
:1021C0000D480E490E4A002302E0D458C45004338F
:1021D000C4188C42F9D30B4A0B4C002301E0136066
:1021E0000432A242FBD3FFF7C5FFFDF7B5FFFFF7AF
:1021F0003DFEFEE700100020C0000020200100206E
:102200001C2300082001002088020020FEE70000B7
:10221000F8B5C046F8BC08BC9E467047F8B5C04645
:08222000F8BC08BC9E467047A3
:10222800661C00086C1B00086C1B00086C1B00086F
:102238006C1B00086C1B00086C1B00086C1B00085A
:102248006C1B00086C1B00086C1B0008C81B0008EE
:10225800801B00086C1B00086C1B00086C1B000826
:102268006C1B0008801B00086C1B00086C1B000816
:102278006C1B00086C1B0008E21A0008A81B000869
:10228800FA1B00086C1B00086C1B0008DC1B00080C
:102298006C1B0008A81B00086C1B00086C1B0008BE
:1022A800741C00085059333246307878204750491A
:1022B8004F204578616D706C650D0A436C6F636BD8
:1022C8003A20256C640D0A006563686F0D000000F4
:1022D800232D302B20000000686C4C006566674594
:1022E80046470000303132333435363738394142C9
:1022F8004344454600000000303132333435363728
:0C23080038396162636465660000000003
:042314003501000887
:0423180009010008AF
:10231C00000000000300000040010020D00000205D
:10232C000000000040010020A80100201002002045
:10233C000000000000000000000000000000000091
:10234C000000000000000000000000000000000081
:10235C000000000000000000000000000000000071
:10236C0000000000000000000000000000127A00D5
:04000005080021BD11
:00000001FF
